{
  "_format": "hh-sol-artifact-1",
  "contractName": "VerifiedAnonymous",
  "sourceName": "contracts/VerifiedAnonymous.sol",
  "abi": [
    {
      "inputs": [
        {
          "internalType": "address",
          "name": "semaphoreAddress",
          "type": "address"
        },
        {
          "internalType": "address",
          "name": "xpoapAddress",
          "type": "address"
        }
      ],
      "stateMutability": "nonpayable",
      "type": "constructor"
    },
    {
      "inputs": [
        {
          "internalType": "uint256",
          "name": "groupId",
          "type": "uint256"
        },
        {
          "internalType": "string",
          "name": "metadata",
          "type": "string"
        }
      ],
      "name": "createEvent",
      "outputs": [],
      "stateMutability": "nonpayable",
      "type": "function"
    },
    {
      "inputs": [
        {
          "internalType": "uint256",
          "name": "",
          "type": "uint256"
        }
      ],
      "name": "groupIdToMetadata",
      "outputs": [
        {
          "internalType": "string",
          "name": "",
          "type": "string"
        }
      ],
      "stateMutability": "view",
      "type": "function"
    },
    {
      "inputs": [],
      "name": "semaphore",
      "outputs": [
        {
          "internalType": "contract ISemaphore",
          "name": "",
          "type": "address"
        }
      ],
      "stateMutability": "view",
      "type": "function"
    },
    {
      "inputs": [
        {
          "internalType": "uint256",
          "name": "groupId",
          "type": "uint256"
        },
        {
          "internalType": "uint256",
          "name": "review",
          "type": "uint256"
        },
        {
          "internalType": "uint256",
          "name": "merkleTreeRoot",
          "type": "uint256"
        },
        {
          "internalType": "uint256",
          "name": "nullifierHash",
          "type": "uint256"
        },
        {
          "internalType": "uint256[8]",
          "name": "proof",
          "type": "uint256[8]"
        }
      ],
      "name": "sendReview",
      "outputs": [],
      "stateMutability": "nonpayable",
      "type": "function"
    },
    {
      "inputs": [
        {
          "internalType": "uint256",
          "name": "identityCommitment",
          "type": "uint256"
        },
        {
          "internalType": "uint256",
          "name": "tokenId",
          "type": "uint256"
        }
      ],
      "name": "verifyAndJoinEvent",
      "outputs": [],
      "stateMutability": "nonpayable",
      "type": "function"
    },
    {
      "inputs": [],
      "name": "xpoap",
      "outputs": [
        {
          "internalType": "contract IXPOAP",
          "name": "",
          "type": "address"
        }
      ],
      "stateMutability": "view",
      "type": "function"
    }
  ],
  "bytecode": "0x608060405234801561001057600080fd5b506040516200100738038062001007833981810160405281019061003491906100d1565b816000806101000a81548173ffffffffffffffffffffffffffffffffffffffff021916908373ffffffffffffffffffffffffffffffffffffffff16021790555080600160006101000a81548173ffffffffffffffffffffffffffffffffffffffff021916908373ffffffffffffffffffffffffffffffffffffffff1602179055505050610156565b6000815190506100cb8161013f565b92915050565b600080604083850312156100e457600080fd5b60006100f2858286016100bc565b9250506020610103858286016100bc565b9150509250929050565b60006101188261011f565b9050919050565b600073ffffffffffffffffffffffffffffffffffffffff82169050919050565b6101488161010d565b811461015357600080fd5b50565b610ea180620001666000396000f3fe608060405234801561001057600080fd5b50600436106100625760003560e01c806372b10296146100675780637b5d253414610085578063a1d255e1146100a3578063d28de8c0146100bf578063ec32ab55146100ef578063f9ee422a1461010b575b600080fd5b61006f610127565b60405161007c9190610a29565b60405180910390f35b61008d61014d565b60405161009a9190610a0e565b60405180910390f35b6100bd60048036038101906100b8919061082b565b610171565b005b6100d960048036038101906100d491906107d9565b610270565b6040516100e69190610a44565b60405180910390f35b610109600480360381019061010491906108bb565b610310565b005b6101256004803603810190610120919061087f565b6103ac565b005b600160009054906101000a900473ffffffffffffffffffffffffffffffffffffffff1681565b60008054906101000a900473ffffffffffffffffffffffffffffffffffffffff1681565b600082116101b4576040517f08c379a00000000000000000000000000000000000000000000000000000000081526004016101ab90610a66565b60405180910390fd5b60008054906101000a900473ffffffffffffffffffffffffffffffffffffffff1673ffffffffffffffffffffffffffffffffffffffff16639c112141836014306040518463ffffffff1660e01b815260040161021293929190610ac1565b600060405180830381600087803b15801561022c57600080fd5b505af1158015610240573d6000803e3d6000fd5b505050508060026000848152602001908152602001600020908051906020019061026b929190610648565b505050565b6002602052806000526040600020600091509050805461028f90610ccd565b80601f01602080910402602001604051908101604052809291908181526020018280546102bb90610ccd565b80156103085780601f106102dd57610100808354040283529160200191610308565b820191906000526020600020905b8154815290600101906020018083116102eb57829003601f168201915b505050505081565b60008054906101000a900473ffffffffffffffffffffffffffffffffffffffff1673ffffffffffffffffffffffffffffffffffffffff16633bc778e3868587868a876040518763ffffffff1660e01b815260040161037396959493929190610b21565b600060405180830381600087803b15801561038d57600080fd5b505af11580156103a1573d6000803e3d6000fd5b505050505050505050565b3373ffffffffffffffffffffffffffffffffffffffff16600160009054906101000a900473ffffffffffffffffffffffffffffffffffffffff1673ffffffffffffffffffffffffffffffffffffffff16636352211e836040518263ffffffff1660e01b815260040161041e9190610aa6565b60206040518083038186803b15801561043657600080fd5b505afa15801561044a573d6000803e3d6000fd5b505050506040513d601f19601f8201168201806040525081019061046e91906107b0565b73ffffffffffffffffffffffffffffffffffffffff16146104c4576040517f08c379a00000000000000000000000000000000000000000000000000000000081526004016104bb90610a86565b60405180910390fd5b6000600160009054906101000a900473ffffffffffffffffffffffffffffffffffffffff1673ffffffffffffffffffffffffffffffffffffffff1663127a5298836040518263ffffffff1660e01b81526004016105219190610aa6565b60206040518083038186803b15801561053957600080fd5b505afa15801561054d573d6000803e3d6000fd5b505050506040513d601f19601f820116820180604052508101906105719190610802565b9050600081116105b6576040517f08c379a00000000000000000000000000000000000000000000000000000000081526004016105ad90610a66565b60405180910390fd5b60008054906101000a900473ffffffffffffffffffffffffffffffffffffffff1673ffffffffffffffffffffffffffffffffffffffff16631783efc382856040518363ffffffff1660e01b8152600401610611929190610af8565b600060405180830381600087803b15801561062b57600080fd5b505af115801561063f573d6000803e3d6000fd5b50505050505050565b82805461065490610ccd565b90600052602060002090601f01602090048101928261067657600085556106bd565b82601f1061068f57805160ff19168380011785556106bd565b828001600101855582156106bd579182015b828111156106bc5782518255916020019190600101906106a1565b5b5090506106ca91906106ce565b5090565b5b808211156106e75760008160009055506001016106cf565b5090565b60006106fe6106f984610ba8565b610b83565b90508281526020810184848401111561071657600080fd5b610721848285610c8b565b509392505050565b60008151905061073881610e3d565b92915050565b60008190508260206008028201111561075657600080fd5b92915050565b600082601f83011261076d57600080fd5b813561077d8482602086016106eb565b91505092915050565b60008135905061079581610e54565b92915050565b6000815190506107aa81610e54565b92915050565b6000602082840312156107c257600080fd5b60006107d084828501610729565b91505092915050565b6000602082840312156107eb57600080fd5b60006107f984828501610786565b91505092915050565b60006020828403121561081457600080fd5b60006108228482850161079b565b91505092915050565b6000806040838503121561083e57600080fd5b600061084c85828601610786565b925050602083013567ffffffffffffffff81111561086957600080fd5b6108758582860161075c565b9150509250929050565b6000806040838503121561089257600080fd5b60006108a085828601610786565b92505060206108b185828601610786565b9150509250929050565b600080600080600061018086880312156108d457600080fd5b60006108e288828901610786565b95505060206108f388828901610786565b945050604061090488828901610786565b935050606061091588828901610786565b92505060806109268882890161073e565b9150509295509295909350565b61093c81610bf5565b82525050565b61094f6101008383610c8b565b5050565b61095c81610c31565b82525050565b61096b81610c55565b82525050565b61097a81610c79565b82525050565b600061098b82610bd9565b6109958185610be4565b93506109a5818560208601610c9a565b6109ae81610d8e565b840191505092915050565b60006109c6602683610be4565b91506109d182610d9f565b604082019050919050565b60006109e9602883610be4565b91506109f482610dee565b604082019050919050565b610a0881610c27565b82525050565b6000602082019050610a236000830184610953565b92915050565b6000602082019050610a3e6000830184610962565b92915050565b60006020820190508181036000830152610a5e8184610980565b905092915050565b60006020820190508181036000830152610a7f816109b9565b9050919050565b60006020820190508181036000830152610a9f816109dc565b9050919050565b6000602082019050610abb60008301846109ff565b92915050565b6000606082019050610ad660008301866109ff565b610ae36020830185610971565b610af06040830184610933565b949350505050565b6000604082019050610b0d60008301856109ff565b610b1a60208301846109ff565b9392505050565b60006101a082019050610b3760008301896109ff565b610b4460208301886109ff565b610b5160408301876109ff565b610b5e60608301866109ff565b610b6b60808301856109ff565b610b7860a0830184610942565b979650505050505050565b6000610b8d610b9e565b9050610b998282610cff565b919050565b6000604051905090565b600067ffffffffffffffff821115610bc357610bc2610d5f565b5b610bcc82610d8e565b9050602081019050919050565b600081519050919050565b600082825260208201905092915050565b6000610c0082610c07565b9050919050565b600073ffffffffffffffffffffffffffffffffffffffff82169050919050565b6000819050919050565b6000610c3c82610c43565b9050919050565b6000610c4e82610c07565b9050919050565b6000610c6082610c67565b9050919050565b6000610c7282610c07565b9050919050565b6000610c8482610c27565b9050919050565b82818337600083830152505050565b60005b83811015610cb8578082015181840152602081019050610c9d565b83811115610cc7576000848401525b50505050565b60006002820490506001821680610ce557607f821691505b60208210811415610cf957610cf8610d30565b5b50919050565b610d0882610d8e565b810181811067ffffffffffffffff82111715610d2757610d26610d5f565b5b80604052505050565b7f4e487b7100000000000000000000000000000000000000000000000000000000600052602260045260246000fd5b7f4e487b7100000000000000000000000000000000000000000000000000000000600052604160045260246000fd5b6000601f19601f8301169050919050565b7f5665726966696564416e6f6e796d6f75733a2067726f7570206964206973206960008201527f6e76616c69640000000000000000000000000000000000000000000000000000602082015250565b7f5665726966696564416e6f6e796d6f75733a206d73672073656e64657220697360008201527f20696e76616c6964000000000000000000000000000000000000000000000000602082015250565b610e4681610bf5565b8114610e5157600080fd5b50565b610e5d81610c27565b8114610e6857600080fd5b5056fea2646970667358221220b349f825c179ae22306eae31791ceef41b8ec0ebdf3d62f478b4d84383c114e464736f6c63430008040033",
  "linkReferences": {},
  "deployedLinkReferences": {}
}