{
  "_format": "hh-sol-artifact-1",
  "contractName": "MockXPOAP",
  "sourceName": "contracts/mocks/MockXPOAP.sol",
  "abi": [
    {
      "inputs": [
        {
          "internalType": "uint256",
          "name": "tokenId",
          "type": "uint256"
        }
      ],
      "name": "ownerOf",
      "outputs": [
        {
          "internalType": "address",
          "name": "ownerAddress",
          "type": "address"
        }
      ],
      "stateMutability": "view",
      "type": "function"
    },
    {
      "inputs": [
        {
          "internalType": "uint256",
          "name": "tokenId",
          "type": "uint256"
        },
        {
          "internalType": "address",
          "name": "ownerAddress",
          "type": "address"
        }
      ],
      "name": "setOwnerOf",
      "outputs": [],
      "stateMutability": "nonpayable",
      "type": "function"
    },
    {
      "inputs": [
        {
          "internalType": "uint256",
          "name": "tokenId",
          "type": "uint256"
        },
        {
          "internalType": "uint256",
          "name": "eventId",
          "type": "uint256"
        }
      ],
      "name": "setTokenEvent",
      "outputs": [],
      "stateMutability": "nonpayable",
      "type": "function"
    },
    {
      "inputs": [
        {
          "internalType": "uint256",
          "name": "tokenId",
          "type": "uint256"
        }
      ],
      "name": "tokenEvent",
      "outputs": [
        {
          "internalType": "uint256",
          "name": "eventId",
          "type": "uint256"
        }
      ],
      "stateMutability": "view",
      "type": "function"
    }
  ],
  "bytecode": "0x608060405234801561001057600080fd5b50610372806100206000396000f3fe608060405234801561001057600080fd5b506004361061004c5760003560e01c80630357233214610051578063127a52981461006d57806322e670b41461009d5780636352211e146100b9575b600080fd5b61006b60048036038101906100669190610242565b6100e9565b005b610087600480360381019061008291906101dd565b610105565b60405161009491906102b7565b60405180910390f35b6100b760048036038101906100b29190610206565b610122565b005b6100d360048036038101906100ce91906101dd565b610177565b6040516100e0919061029c565b60405180910390f35b8060016000848152602001908152602001600020819055505050565b600060016000838152602001908152602001600020549050919050565b8060008084815260200190815260200160002060006101000a81548173ffffffffffffffffffffffffffffffffffffffff021916908373ffffffffffffffffffffffffffffffffffffffff1602179055505050565b600080600083815260200190815260200160002060009054906101000a900473ffffffffffffffffffffffffffffffffffffffff169050919050565b6000813590506101c28161030e565b92915050565b6000813590506101d781610325565b92915050565b6000602082840312156101ef57600080fd5b60006101fd848285016101c8565b91505092915050565b6000806040838503121561021957600080fd5b6000610227858286016101c8565b9250506020610238858286016101b3565b9150509250929050565b6000806040838503121561025557600080fd5b6000610263858286016101c8565b9250506020610274858286016101c8565b9150509250929050565b610287816102d2565b82525050565b61029681610304565b82525050565b60006020820190506102b1600083018461027e565b92915050565b60006020820190506102cc600083018461028d565b92915050565b60006102dd826102e4565b9050919050565b600073ffffffffffffffffffffffffffffffffffffffff82169050919050565b6000819050919050565b610317816102d2565b811461032257600080fd5b50565b61032e81610304565b811461033957600080fd5b5056fea2646970667358221220a4e33372d63e7aa34f7592913578bfc0199fe5ff42c0bad867cf24a8781f84f964736f6c63430008040033",
  "linkReferences": {},
  "deployedLinkReferences": {}
}