{
  "_format": "hh-sol-artifact-1",
  "contractName": "VerifiableAnonymous",
  "sourceName": "contracts/VerifiableAnonymous.sol",
  "abi": [
    {
      "inputs": [
        {
          "internalType": "address",
          "name": "semaphoreAddress",
          "type": "address"
        },
        {
          "internalType": "address",
          "name": "xpoapAddress",
          "type": "address"
        }
      ],
      "stateMutability": "nonpayable",
      "type": "constructor"
    },
    {
      "inputs": [
        {
          "internalType": "uint256",
          "name": "eventId",
          "type": "uint256"
        }
      ],
      "name": "createGroup",
      "outputs": [],
      "stateMutability": "nonpayable",
      "type": "function"
    },
    {
      "inputs": [
        {
          "internalType": "uint256",
          "name": "identityCommitment",
          "type": "uint256"
        },
        {
          "internalType": "uint256",
          "name": "tokenId",
          "type": "uint256"
        }
      ],
      "name": "joinGroup",
      "outputs": [],
      "stateMutability": "nonpayable",
      "type": "function"
    },
    {
      "inputs": [],
      "name": "semaphore",
      "outputs": [
        {
          "internalType": "contract ISemaphore",
          "name": "",
          "type": "address"
        }
      ],
      "stateMutability": "view",
      "type": "function"
    },
    {
      "inputs": [
        {
          "internalType": "uint256",
          "name": "eventId",
          "type": "uint256"
        },
        {
          "internalType": "uint256",
          "name": "review",
          "type": "uint256"
        },
        {
          "internalType": "uint256",
          "name": "merkleTreeRoot",
          "type": "uint256"
        },
        {
          "internalType": "uint256",
          "name": "nullifierHash",
          "type": "uint256"
        },
        {
          "internalType": "uint256[8]",
          "name": "proof",
          "type": "uint256[8]"
        }
      ],
      "name": "sendReview",
      "outputs": [],
      "stateMutability": "nonpayable",
      "type": "function"
    },
    {
      "inputs": [],
      "name": "xpoap",
      "outputs": [
        {
          "internalType": "contract IXPOAP",
          "name": "",
          "type": "address"
        }
      ],
      "stateMutability": "view",
      "type": "function"
    }
  ],
  "bytecode": "0x608060405234801561001057600080fd5b50604051610ac8380380610ac8833981810160405281019061003291906100cf565b816000806101000a81548173ffffffffffffffffffffffffffffffffffffffff021916908373ffffffffffffffffffffffffffffffffffffffff16021790555080600160006101000a81548173ffffffffffffffffffffffffffffffffffffffff021916908373ffffffffffffffffffffffffffffffffffffffff1602179055505050610154565b6000815190506100c98161013d565b92915050565b600080604083850312156100e257600080fd5b60006100f0858286016100ba565b9250506020610101858286016100ba565b9150509250929050565b60006101168261011d565b9050919050565b600073ffffffffffffffffffffffffffffffffffffffff82169050919050565b6101468161010b565b811461015157600080fd5b50565b610965806101636000396000f3fe608060405234801561001057600080fd5b50600436106100575760003560e01c80631a0c750c1461005c57806365bf60e01461007857806372b10296146100945780637b5d2534146100b2578063ec32ab55146100d0575b600080fd5b61007660048036038101906100719190610596565b6100ec565b005b610092600480360381019061008d9190610544565b610345565b005b61009c6103d8565b6040516100a991906106e4565b60405180910390f35b6100ba6103fe565b6040516100c791906106c9565b60405180910390f35b6100ea60048036038101906100e591906105d2565b610422565b005b3373ffffffffffffffffffffffffffffffffffffffff16600160009054906101000a900473ffffffffffffffffffffffffffffffffffffffff1673ffffffffffffffffffffffffffffffffffffffff16636352211e836040518263ffffffff1660e01b815260040161015e919061071f565b60206040518083038186803b15801561017657600080fd5b505afa15801561018a573d6000803e3d6000fd5b505050506040513d601f19601f820116820180604052508101906101ae919061051b565b73ffffffffffffffffffffffffffffffffffffffff1614610204576040517f08c379a00000000000000000000000000000000000000000000000000000000081526004016101fb906106ff565b60405180910390fd5b6000600160009054906101000a900473ffffffffffffffffffffffffffffffffffffffff1673ffffffffffffffffffffffffffffffffffffffff1663127a5298836040518263ffffffff1660e01b8152600401610261919061071f565b60206040518083038186803b15801561027957600080fd5b505afa15801561028d573d6000803e3d6000fd5b505050506040513d601f19601f820116820180604052508101906102b1919061056d565b905060008054906101000a900473ffffffffffffffffffffffffffffffffffffffff1673ffffffffffffffffffffffffffffffffffffffff16631783efc382856040518363ffffffff1660e01b815260040161030e929190610771565b600060405180830381600087803b15801561032857600080fd5b505af115801561033c573d6000803e3d6000fd5b50505050505050565b60008054906101000a900473ffffffffffffffffffffffffffffffffffffffff1673ffffffffffffffffffffffffffffffffffffffff16639c112141826014306040518463ffffffff1660e01b81526004016103a39392919061073a565b600060405180830381600087803b1580156103bd57600080fd5b505af11580156103d1573d6000803e3d6000fd5b5050505050565b600160009054906101000a900473ffffffffffffffffffffffffffffffffffffffff1681565b60008054906101000a900473ffffffffffffffffffffffffffffffffffffffff1681565b60008054906101000a900473ffffffffffffffffffffffffffffffffffffffff1673ffffffffffffffffffffffffffffffffffffffff16633bc778e3868587868a876040518763ffffffff1660e01b81526004016104859695949392919061079a565b600060405180830381600087803b15801561049f57600080fd5b505af11580156104b3573d6000803e3d6000fd5b505050505050505050565b6000815190506104cd81610901565b92915050565b6000819050826020600802820111156104eb57600080fd5b92915050565b60008135905061050081610918565b92915050565b60008151905061051581610918565b92915050565b60006020828403121561052d57600080fd5b600061053b848285016104be565b91505092915050565b60006020828403121561055657600080fd5b6000610564848285016104f1565b91505092915050565b60006020828403121561057f57600080fd5b600061058d84828501610506565b91505092915050565b600080604083850312156105a957600080fd5b60006105b7858286016104f1565b92505060206105c8858286016104f1565b9150509250929050565b600080600080600061018086880312156105eb57600080fd5b60006105f9888289016104f1565b955050602061060a888289016104f1565b945050604061061b888289016104f1565b935050606061062c888289016104f1565b925050608061063d888289016104d3565b9150509295509295909350565b6106538161080d565b82525050565b61066661010083836108a3565b5050565b61067381610849565b82525050565b6106828161086d565b82525050565b61069181610891565b82525050565b60006106a4602a836107fc565b91506106af826108b2565b604082019050919050565b6106c38161083f565b82525050565b60006020820190506106de600083018461066a565b92915050565b60006020820190506106f96000830184610679565b92915050565b6000602082019050818103600083015261071881610697565b9050919050565b600060208201905061073460008301846106ba565b92915050565b600060608201905061074f60008301866106ba565b61075c6020830185610688565b610769604083018461064a565b949350505050565b600060408201905061078660008301856106ba565b61079360208301846106ba565b9392505050565b60006101a0820190506107b060008301896106ba565b6107bd60208301886106ba565b6107ca60408301876106ba565b6107d760608301866106ba565b6107e460808301856106ba565b6107f160a0830184610659565b979650505050505050565b600082825260208201905092915050565b60006108188261081f565b9050919050565b600073ffffffffffffffffffffffffffffffffffffffff82169050919050565b6000819050919050565b60006108548261085b565b9050919050565b60006108668261081f565b9050919050565b60006108788261087f565b9050919050565b600061088a8261081f565b9050919050565b600061089c8261083f565b9050919050565b82818337600083830152505050565b7f56657269666961626c65416e6f6e796d6f75733a206d73672073656e6465722060008201527f697320696e76616c696400000000000000000000000000000000000000000000602082015250565b61090a8161080d565b811461091557600080fd5b50565b6109218161083f565b811461092c57600080fd5b5056fea264697066735822122083b9df139654a3dc6ef1fa3b29784632b49edc2d77d54a29d9c0b103e8b5935564736f6c63430008040033",
  "linkReferences": {},
  "deployedLinkReferences": {}
}