{
  "_format": "hh-sol-artifact-1",
  "contractName": "VerifiableAnonymous",
  "sourceName": "contracts/VerifiableAnonymous.sol",
  "abi": [
    {
      "inputs": [
        {
          "internalType": "address",
          "name": "semaphoreAddress",
          "type": "address"
        },
        {
          "internalType": "address",
          "name": "xpoapAddress",
          "type": "address"
        }
      ],
      "stateMutability": "nonpayable",
      "type": "constructor"
    },
    {
      "inputs": [
        {
          "internalType": "uint256",
          "name": "groupId",
          "type": "uint256"
        }
      ],
      "name": "createEvent",
      "outputs": [],
      "stateMutability": "nonpayable",
      "type": "function"
    },
    {
      "inputs": [],
      "name": "semaphore",
      "outputs": [
        {
          "internalType": "contract ISemaphore",
          "name": "",
          "type": "address"
        }
      ],
      "stateMutability": "view",
      "type": "function"
    },
    {
      "inputs": [
        {
          "internalType": "uint256",
          "name": "groupId",
          "type": "uint256"
        },
        {
          "internalType": "uint256",
          "name": "review",
          "type": "uint256"
        },
        {
          "internalType": "uint256",
          "name": "merkleTreeRoot",
          "type": "uint256"
        },
        {
          "internalType": "uint256",
          "name": "nullifierHash",
          "type": "uint256"
        },
        {
          "internalType": "uint256[8]",
          "name": "proof",
          "type": "uint256[8]"
        }
      ],
      "name": "sendReview",
      "outputs": [],
      "stateMutability": "nonpayable",
      "type": "function"
    },
    {
      "inputs": [
        {
          "internalType": "uint256",
          "name": "identityCommitment",
          "type": "uint256"
        },
        {
          "internalType": "uint256",
          "name": "tokenId",
          "type": "uint256"
        }
      ],
      "name": "verifyAndJoinEvent",
      "outputs": [],
      "stateMutability": "nonpayable",
      "type": "function"
    },
    {
      "inputs": [],
      "name": "xpoap",
      "outputs": [
        {
          "internalType": "contract IXPOAP",
          "name": "",
          "type": "address"
        }
      ],
      "stateMutability": "view",
      "type": "function"
    }
  ],
  "bytecode": "0x608060405234801561001057600080fd5b50604051610be0380380610be0833981810160405281019061003291906100cf565b816000806101000a81548173ffffffffffffffffffffffffffffffffffffffff021916908373ffffffffffffffffffffffffffffffffffffffff16021790555080600160006101000a81548173ffffffffffffffffffffffffffffffffffffffff021916908373ffffffffffffffffffffffffffffffffffffffff1602179055505050610154565b6000815190506100c98161013d565b92915050565b600080604083850312156100e257600080fd5b60006100f0858286016100ba565b9250506020610101858286016100ba565b9150509250929050565b60006101168261011d565b9050919050565b600073ffffffffffffffffffffffffffffffffffffffff82169050919050565b6101468161010b565b811461015157600080fd5b50565b610a7d806101636000396000f3fe608060405234801561001057600080fd5b50600436106100575760003560e01c806372b102961461005c5780637b5d25341461007a578063977d996d14610098578063ec32ab55146100b4578063f9ee422a146100d0575b600080fd5b6100646100ec565b604051610071919061078d565b60405180910390f35b610082610112565b60405161008f9190610772565b60405180910390f35b6100b260048036038101906100ad91906105ca565b610136565b005b6100ce60048036038101906100c99190610658565b61020c565b005b6100ea60048036038101906100e5919061061c565b6102a8565b005b600160009054906101000a900473ffffffffffffffffffffffffffffffffffffffff1681565b60008054906101000a900473ffffffffffffffffffffffffffffffffffffffff1681565b60008111610179576040517f08c379a0000000000000000000000000000000000000000000000000000000008152600401610170906107c8565b60405180910390fd5b60008054906101000a900473ffffffffffffffffffffffffffffffffffffffff1673ffffffffffffffffffffffffffffffffffffffff16639c112141826014306040518463ffffffff1660e01b81526004016101d793929190610803565b600060405180830381600087803b1580156101f157600080fd5b505af1158015610205573d6000803e3d6000fd5b5050505050565b60008054906101000a900473ffffffffffffffffffffffffffffffffffffffff1673ffffffffffffffffffffffffffffffffffffffff16633bc778e3868587868a876040518763ffffffff1660e01b815260040161026f96959493929190610863565b600060405180830381600087803b15801561028957600080fd5b505af115801561029d573d6000803e3d6000fd5b505050505050505050565b3373ffffffffffffffffffffffffffffffffffffffff16600160009054906101000a900473ffffffffffffffffffffffffffffffffffffffff1673ffffffffffffffffffffffffffffffffffffffff16636352211e836040518263ffffffff1660e01b815260040161031a91906107e8565b60206040518083038186803b15801561033257600080fd5b505afa158015610346573d6000803e3d6000fd5b505050506040513d601f19601f8201168201806040525081019061036a91906105a1565b73ffffffffffffffffffffffffffffffffffffffff16146103c0576040517f08c379a00000000000000000000000000000000000000000000000000000000081526004016103b7906107a8565b60405180910390fd5b6000600160009054906101000a900473ffffffffffffffffffffffffffffffffffffffff1673ffffffffffffffffffffffffffffffffffffffff1663127a5298836040518263ffffffff1660e01b815260040161041d91906107e8565b60206040518083038186803b15801561043557600080fd5b505afa158015610449573d6000803e3d6000fd5b505050506040513d601f19601f8201168201806040525081019061046d91906105f3565b9050600081116104b2576040517f08c379a00000000000000000000000000000000000000000000000000000000081526004016104a9906107c8565b60405180910390fd5b60008054906101000a900473ffffffffffffffffffffffffffffffffffffffff1673ffffffffffffffffffffffffffffffffffffffff16631783efc382856040518363ffffffff1660e01b815260040161050d92919061083a565b600060405180830381600087803b15801561052757600080fd5b505af115801561053b573d6000803e3d6000fd5b50505050505050565b60008151905061055381610a19565b92915050565b60008190508260206008028201111561057157600080fd5b92915050565b60008135905061058681610a30565b92915050565b60008151905061059b81610a30565b92915050565b6000602082840312156105b357600080fd5b60006105c184828501610544565b91505092915050565b6000602082840312156105dc57600080fd5b60006105ea84828501610577565b91505092915050565b60006020828403121561060557600080fd5b60006106138482850161058c565b91505092915050565b6000806040838503121561062f57600080fd5b600061063d85828601610577565b925050602061064e85828601610577565b9150509250929050565b6000806000806000610180868803121561067157600080fd5b600061067f88828901610577565b955050602061069088828901610577565b94505060406106a188828901610577565b93505060606106b288828901610577565b92505060806106c388828901610559565b9150509295509295909350565b6106d9816108d6565b82525050565b6106ec610100838361096c565b5050565b6106f981610912565b82525050565b61070881610936565b82525050565b6107178161095a565b82525050565b600061072a602a836108c5565b91506107358261097b565b604082019050919050565b600061074d6028836108c5565b9150610758826109ca565b604082019050919050565b61076c81610908565b82525050565b600060208201905061078760008301846106f0565b92915050565b60006020820190506107a260008301846106ff565b92915050565b600060208201905081810360008301526107c18161071d565b9050919050565b600060208201905081810360008301526107e181610740565b9050919050565b60006020820190506107fd6000830184610763565b92915050565b60006060820190506108186000830186610763565b610825602083018561070e565b61083260408301846106d0565b949350505050565b600060408201905061084f6000830185610763565b61085c6020830184610763565b9392505050565b60006101a0820190506108796000830189610763565b6108866020830188610763565b6108936040830187610763565b6108a06060830186610763565b6108ad6080830185610763565b6108ba60a08301846106df565b979650505050505050565b600082825260208201905092915050565b60006108e1826108e8565b9050919050565b600073ffffffffffffffffffffffffffffffffffffffff82169050919050565b6000819050919050565b600061091d82610924565b9050919050565b600061092f826108e8565b9050919050565b600061094182610948565b9050919050565b6000610953826108e8565b9050919050565b600061096582610908565b9050919050565b82818337600083830152505050565b7f56657269666961626c65416e6f6e796d6f75733a206d73672073656e6465722060008201527f697320696e76616c696400000000000000000000000000000000000000000000602082015250565b7f56657269666961626c65416e6f6e796d6f75733a2067726f757020696420697360008201527f20696e76616c6964000000000000000000000000000000000000000000000000602082015250565b610a22816108d6565b8114610a2d57600080fd5b50565b610a3981610908565b8114610a4457600080fd5b5056fea2646970667358221220d6397b5e3863a8de87138fe214cea73ee7d08d17d82f4a143248ba3563f179be64736f6c63430008040033",
  "linkReferences": {},
  "deployedLinkReferences": {}
}