{
  "_format": "hh-sol-artifact-1",
  "contractName": "VerifiableAnonymous",
  "sourceName": "contracts/VerifiableAnonymous.sol",
  "abi": [
    {
      "inputs": [
        {
          "internalType": "address",
          "name": "semaphoreAddress",
          "type": "address"
        },
        {
          "internalType": "address",
          "name": "xpoapAddress",
          "type": "address"
        }
      ],
      "stateMutability": "nonpayable",
      "type": "constructor"
    },
    {
      "inputs": [
        {
          "internalType": "uint256",
          "name": "groupId",
          "type": "uint256"
        }
      ],
      "name": "createEvent",
      "outputs": [],
      "stateMutability": "nonpayable",
      "type": "function"
    },
    {
      "inputs": [
        {
          "internalType": "uint256",
          "name": "",
          "type": "uint256"
        }
      ],
      "name": "isGroupCreated",
      "outputs": [
        {
          "internalType": "bool",
          "name": "",
          "type": "bool"
        }
      ],
      "stateMutability": "view",
      "type": "function"
    },
    {
      "inputs": [],
      "name": "semaphore",
      "outputs": [
        {
          "internalType": "contract ISemaphore",
          "name": "",
          "type": "address"
        }
      ],
      "stateMutability": "view",
      "type": "function"
    },
    {
      "inputs": [
        {
          "internalType": "uint256",
          "name": "groupId",
          "type": "uint256"
        },
        {
          "internalType": "uint256",
          "name": "review",
          "type": "uint256"
        },
        {
          "internalType": "uint256",
          "name": "merkleTreeRoot",
          "type": "uint256"
        },
        {
          "internalType": "uint256",
          "name": "nullifierHash",
          "type": "uint256"
        },
        {
          "internalType": "uint256[8]",
          "name": "proof",
          "type": "uint256[8]"
        }
      ],
      "name": "sendReview",
      "outputs": [],
      "stateMutability": "nonpayable",
      "type": "function"
    },
    {
      "inputs": [
        {
          "internalType": "uint256",
          "name": "identityCommitment",
          "type": "uint256"
        },
        {
          "internalType": "uint256",
          "name": "tokenId",
          "type": "uint256"
        }
      ],
      "name": "verifyAndJoinEvent",
      "outputs": [],
      "stateMutability": "nonpayable",
      "type": "function"
    },
    {
      "inputs": [],
      "name": "xpoap",
      "outputs": [
        {
          "internalType": "contract IXPOAP",
          "name": "",
          "type": "address"
        }
      ],
      "stateMutability": "view",
      "type": "function"
    }
  ],
  "bytecode": "0x608060405234801561001057600080fd5b50604051610d4c380380610d4c833981810160405281019061003291906100cf565b816000806101000a81548173ffffffffffffffffffffffffffffffffffffffff021916908373ffffffffffffffffffffffffffffffffffffffff16021790555080600160006101000a81548173ffffffffffffffffffffffffffffffffffffffff021916908373ffffffffffffffffffffffffffffffffffffffff1602179055505050610154565b6000815190506100c98161013d565b92915050565b600080604083850312156100e257600080fd5b60006100f0858286016100ba565b9250506020610101858286016100ba565b9150509250929050565b60006101168261011d565b9050919050565b600073ffffffffffffffffffffffffffffffffffffffff82169050919050565b6101468161010b565b811461015157600080fd5b50565b610be9806101636000396000f3fe608060405234801561001057600080fd5b50600436106100625760003560e01c806307a34edc1461006757806372b10296146100975780637b5d2534146100b5578063977d996d146100d3578063ec32ab55146100ef578063f9ee422a1461010b575b600080fd5b610081600480360381019061007c919061066e565b610127565b60405161008e9190610848565b60405180910390f35b61009f610147565b6040516100ac919061087e565b60405180910390f35b6100bd61016d565b6040516100ca9190610863565b60405180910390f35b6100ed60048036038101906100e8919061066e565b610191565b005b610109600480360381019061010491906106fc565b610293565b005b610125600480360381019061012091906106c0565b61032f565b005b60026020528060005260406000206000915054906101000a900460ff1681565b600160009054906101000a900473ffffffffffffffffffffffffffffffffffffffff1681565b60008054906101000a900473ffffffffffffffffffffffffffffffffffffffff1681565b600081116101d4576040517f08c379a00000000000000000000000000000000000000000000000000000000081526004016101cb906108d9565b60405180910390fd5b60008054906101000a900473ffffffffffffffffffffffffffffffffffffffff1673ffffffffffffffffffffffffffffffffffffffff16639c112141826014306040518463ffffffff1660e01b815260040161023293929190610914565b600060405180830381600087803b15801561024c57600080fd5b505af1158015610260573d6000803e3d6000fd5b5050505060016002600083815260200190815260200160002060006101000a81548160ff02191690831515021790555050565b60008054906101000a900473ffffffffffffffffffffffffffffffffffffffff1673ffffffffffffffffffffffffffffffffffffffff16633bc778e3868587868a876040518763ffffffff1660e01b81526004016102f696959493929190610974565b600060405180830381600087803b15801561031057600080fd5b505af1158015610324573d6000803e3d6000fd5b505050505050505050565b3373ffffffffffffffffffffffffffffffffffffffff16600160009054906101000a900473ffffffffffffffffffffffffffffffffffffffff1673ffffffffffffffffffffffffffffffffffffffff16636352211e836040518263ffffffff1660e01b81526004016103a191906108f9565b60206040518083038186803b1580156103b957600080fd5b505afa1580156103cd573d6000803e3d6000fd5b505050506040513d601f19601f820116820180604052508101906103f19190610645565b73ffffffffffffffffffffffffffffffffffffffff1614610447576040517f08c379a000000000000000000000000000000000000000000000000000000000815260040161043e90610899565b60405180910390fd5b6000600160009054906101000a900473ffffffffffffffffffffffffffffffffffffffff1673ffffffffffffffffffffffffffffffffffffffff1663127a5298836040518263ffffffff1660e01b81526004016104a491906108f9565b60206040518083038186803b1580156104bc57600080fd5b505afa1580156104d0573d6000803e3d6000fd5b505050506040513d601f19601f820116820180604052508101906104f49190610697565b90506002600082815260200190815260200160002060009054906101000a900460ff16610556576040517f08c379a000000000000000000000000000000000000000000000000000000000815260040161054d906108b9565b60405180910390fd5b60008054906101000a900473ffffffffffffffffffffffffffffffffffffffff1673ffffffffffffffffffffffffffffffffffffffff16631783efc382856040518363ffffffff1660e01b81526004016105b192919061094b565b600060405180830381600087803b1580156105cb57600080fd5b505af11580156105df573d6000803e3d6000fd5b50505050505050565b6000815190506105f781610b85565b92915050565b60008190508260206008028201111561061557600080fd5b92915050565b60008135905061062a81610b9c565b92915050565b60008151905061063f81610b9c565b92915050565b60006020828403121561065757600080fd5b6000610665848285016105e8565b91505092915050565b60006020828403121561068057600080fd5b600061068e8482850161061b565b91505092915050565b6000602082840312156106a957600080fd5b60006106b784828501610630565b91505092915050565b600080604083850312156106d357600080fd5b60006106e18582860161061b565b92505060206106f28582860161061b565b9150509250929050565b6000806000806000610180868803121561071557600080fd5b60006107238882890161061b565b95505060206107348882890161061b565b94505060406107458882890161061b565b93505060606107568882890161061b565b9250506080610767888289016105fd565b9150509295509295909350565b61077d816109e7565b82525050565b6107906101008383610a89565b5050565b61079d816109f9565b82525050565b6107ac81610a2f565b82525050565b6107bb81610a53565b82525050565b6107ca81610a77565b82525050565b60006107dd602a836109d6565b91506107e882610a98565b604082019050919050565b60006108006028836109d6565b915061080b82610ae7565b604082019050919050565b60006108236028836109d6565b915061082e82610b36565b604082019050919050565b61084281610a25565b82525050565b600060208201905061085d6000830184610794565b92915050565b600060208201905061087860008301846107a3565b92915050565b600060208201905061089360008301846107b2565b92915050565b600060208201905081810360008301526108b2816107d0565b9050919050565b600060208201905081810360008301526108d2816107f3565b9050919050565b600060208201905081810360008301526108f281610816565b9050919050565b600060208201905061090e6000830184610839565b92915050565b60006060820190506109296000830186610839565b61093660208301856107c1565b6109436040830184610774565b949350505050565b60006040820190506109606000830185610839565b61096d6020830184610839565b9392505050565b60006101a08201905061098a6000830189610839565b6109976020830188610839565b6109a46040830187610839565b6109b16060830186610839565b6109be6080830185610839565b6109cb60a0830184610783565b979650505050505050565b600082825260208201905092915050565b60006109f282610a05565b9050919050565b60008115159050919050565b600073ffffffffffffffffffffffffffffffffffffffff82169050919050565b6000819050919050565b6000610a3a82610a41565b9050919050565b6000610a4c82610a05565b9050919050565b6000610a5e82610a65565b9050919050565b6000610a7082610a05565b9050919050565b6000610a8282610a25565b9050919050565b82818337600083830152505050565b7f56657269666961626c65416e6f6e796d6f75733a206d73672073656e6465722060008201527f697320696e76616c696400000000000000000000000000000000000000000000602082015250565b7f56657269666961626c65416e6f6e796d6f75733a206576656e7420696420697360008201527f20696e76616c6964000000000000000000000000000000000000000000000000602082015250565b7f56657269666961626c65416e6f6e796d6f75733a2067726f757020696420697360008201527f20696e76616c6964000000000000000000000000000000000000000000000000602082015250565b610b8e816109e7565b8114610b9957600080fd5b50565b610ba581610a25565b8114610bb057600080fd5b5056fea2646970667358221220a09ab7efe5409d66fbcdf7c2be8537a7e5ec1afd7e44384c505c567932636f7564736f6c63430008040033",
  "linkReferences": {},
  "deployedLinkReferences": {}
}